{
  "_format": "hh-sol-artifact-1",
  "contractName": "MyEpicGame",
  "sourceName": "contracts/MyEpicGame.sol",
  "abi": [
    {
      "inputs": [
        {
          "internalType": "string[]",
          "name": "characterNames",
          "type": "string[]"
        },
        {
          "internalType": "string[]",
          "name": "characterImageURIs",
          "type": "string[]"
        },
        {
          "internalType": "uint256[]",
          "name": "characterHp",
          "type": "uint256[]"
        },
        {
          "internalType": "uint256[]",
          "name": "characterAttackDmg",
          "type": "uint256[]"
        },
        {
          "internalType": "string",
          "name": "bossName",
          "type": "string"
        },
        {
          "internalType": "string",
          "name": "bossImageURI",
          "type": "string"
        },
        {
          "internalType": "uint256",
          "name": "bossHp",
          "type": "uint256"
        },
        {
          "internalType": "uint256",
          "name": "bossAttackDamage",
          "type": "uint256"
        }
      ],
      "stateMutability": "nonpayable",
      "type": "constructor"
    },
    {
      "anonymous": false,
      "inputs": [
        {
          "indexed": true,
          "internalType": "address",
          "name": "owner",
          "type": "address"
        },
        {
          "indexed": true,
          "internalType": "address",
          "name": "approved",
          "type": "address"
        },
        {
          "indexed": true,
          "internalType": "uint256",
          "name": "tokenId",
          "type": "uint256"
        }
      ],
      "name": "Approval",
      "type": "event"
    },
    {
      "anonymous": false,
      "inputs": [
        {
          "indexed": true,
          "internalType": "address",
          "name": "owner",
          "type": "address"
        },
        {
          "indexed": true,
          "internalType": "address",
          "name": "operator",
          "type": "address"
        },
        {
          "indexed": false,
          "internalType": "bool",
          "name": "approved",
          "type": "bool"
        }
      ],
      "name": "ApprovalForAll",
      "type": "event"
    },
    {
      "anonymous": false,
      "inputs": [
        {
          "indexed": false,
          "internalType": "address",
          "name": "sender",
          "type": "address"
        },
        {
          "indexed": false,
          "internalType": "uint256",
          "name": "newBossHp",
          "type": "uint256"
        },
        {
          "indexed": false,
          "internalType": "uint256",
          "name": "newPlayerHp",
          "type": "uint256"
        }
      ],
      "name": "AttackComplete",
      "type": "event"
    },
    {
      "anonymous": false,
      "inputs": [
        {
          "indexed": false,
          "internalType": "address",
          "name": "sender",
          "type": "address"
        },
        {
          "indexed": false,
          "internalType": "uint256",
          "name": "tokenId",
          "type": "uint256"
        },
        {
          "indexed": false,
          "internalType": "uint256",
          "name": "characterIndex",
          "type": "uint256"
        }
      ],
      "name": "CharacterNFTMinted",
      "type": "event"
    },
    {
      "anonymous": false,
      "inputs": [
        {
          "indexed": true,
          "internalType": "address",
          "name": "from",
          "type": "address"
        },
        {
          "indexed": true,
          "internalType": "address",
          "name": "to",
          "type": "address"
        },
        {
          "indexed": true,
          "internalType": "uint256",
          "name": "tokenId",
          "type": "uint256"
        }
      ],
      "name": "Transfer",
      "type": "event"
    },
    {
      "inputs": [
        {
          "internalType": "address",
          "name": "to",
          "type": "address"
        },
        {
          "internalType": "uint256",
          "name": "tokenId",
          "type": "uint256"
        }
      ],
      "name": "approve",
      "outputs": [],
      "stateMutability": "nonpayable",
      "type": "function"
    },
    {
      "inputs": [
        {
          "internalType": "uint256",
          "name": "nftTokenId",
          "type": "uint256"
        }
      ],
      "name": "attackBoss",
      "outputs": [],
      "stateMutability": "nonpayable",
      "type": "function"
    },
    {
      "inputs": [
        {
          "internalType": "address",
          "name": "owner",
          "type": "address"
        }
      ],
      "name": "balanceOf",
      "outputs": [
        {
          "internalType": "uint256",
          "name": "",
          "type": "uint256"
        }
      ],
      "stateMutability": "view",
      "type": "function"
    },
    {
      "inputs": [],
      "name": "bigBoss",
      "outputs": [
        {
          "internalType": "string",
          "name": "name",
          "type": "string"
        },
        {
          "internalType": "string",
          "name": "imageURI",
          "type": "string"
        },
        {
          "internalType": "uint256",
          "name": "hp",
          "type": "uint256"
        },
        {
          "internalType": "uint256",
          "name": "maxHp",
          "type": "uint256"
        },
        {
          "internalType": "uint256",
          "name": "attackDamage",
          "type": "uint256"
        }
      ],
      "stateMutability": "view",
      "type": "function"
    },
    {
      "inputs": [],
      "name": "checkIfUserHasNFT",
      "outputs": [
        {
          "components": [
            {
              "internalType": "uint256",
              "name": "characterIndex",
              "type": "uint256"
            },
            {
              "internalType": "string",
              "name": "name",
              "type": "string"
            },
            {
              "internalType": "string",
              "name": "imageURI",
              "type": "string"
            },
            {
              "internalType": "uint256",
              "name": "hp",
              "type": "uint256"
            },
            {
              "internalType": "uint256",
              "name": "maxHp",
              "type": "uint256"
            },
            {
              "internalType": "uint256",
              "name": "attackDamage",
              "type": "uint256"
            }
          ],
          "internalType": "struct MyEpicGame.CharacterAttributes[]",
          "name": "characterNFT",
          "type": "tuple[]"
        },
        {
          "internalType": "uint256[]",
          "name": "tokenId",
          "type": "uint256[]"
        }
      ],
      "stateMutability": "view",
      "type": "function"
    },
    {
      "inputs": [],
      "name": "getAllDefaultCharacters",
      "outputs": [
        {
          "components": [
            {
              "internalType": "uint256",
              "name": "characterIndex",
              "type": "uint256"
            },
            {
              "internalType": "string",
              "name": "name",
              "type": "string"
            },
            {
              "internalType": "string",
              "name": "imageURI",
              "type": "string"
            },
            {
              "internalType": "uint256",
              "name": "hp",
              "type": "uint256"
            },
            {
              "internalType": "uint256",
              "name": "maxHp",
              "type": "uint256"
            },
            {
              "internalType": "uint256",
              "name": "attackDamage",
              "type": "uint256"
            }
          ],
          "internalType": "struct MyEpicGame.CharacterAttributes[]",
          "name": "",
          "type": "tuple[]"
        }
      ],
      "stateMutability": "view",
      "type": "function"
    },
    {
      "inputs": [
        {
          "internalType": "uint256",
          "name": "tokenId",
          "type": "uint256"
        }
      ],
      "name": "getApproved",
      "outputs": [
        {
          "internalType": "address",
          "name": "",
          "type": "address"
        }
      ],
      "stateMutability": "view",
      "type": "function"
    },
    {
      "inputs": [],
      "name": "getBigBoss",
      "outputs": [
        {
          "components": [
            {
              "internalType": "string",
              "name": "name",
              "type": "string"
            },
            {
              "internalType": "string",
              "name": "imageURI",
              "type": "string"
            },
            {
              "internalType": "uint256",
              "name": "hp",
              "type": "uint256"
            },
            {
              "internalType": "uint256",
              "name": "maxHp",
              "type": "uint256"
            },
            {
              "internalType": "uint256",
              "name": "attackDamage",
              "type": "uint256"
            }
          ],
          "internalType": "struct MyEpicGame.BigBoss",
          "name": "",
          "type": "tuple"
        }
      ],
      "stateMutability": "view",
      "type": "function"
    },
    {
      "inputs": [
        {
          "internalType": "address",
          "name": "owner",
          "type": "address"
        },
        {
          "internalType": "address",
          "name": "operator",
          "type": "address"
        }
      ],
      "name": "isApprovedForAll",
      "outputs": [
        {
          "internalType": "bool",
          "name": "",
          "type": "bool"
        }
      ],
      "stateMutability": "view",
      "type": "function"
    },
    {
      "inputs": [
        {
          "internalType": "uint256",
          "name": "_characterIndex",
          "type": "uint256"
        }
      ],
      "name": "mintCharacterNFT",
      "outputs": [],
      "stateMutability": "nonpayable",
      "type": "function"
    },
    {
      "inputs": [],
      "name": "name",
      "outputs": [
        {
          "internalType": "string",
          "name": "",
          "type": "string"
        }
      ],
      "stateMutability": "view",
      "type": "function"
    },
    {
      "inputs": [
        {
          "internalType": "uint256",
          "name": "",
          "type": "uint256"
        }
      ],
      "name": "nftAttributes",
      "outputs": [
        {
          "internalType": "uint256",
          "name": "characterIndex",
          "type": "uint256"
        },
        {
          "internalType": "string",
          "name": "name",
          "type": "string"
        },
        {
          "internalType": "string",
          "name": "imageURI",
          "type": "string"
        },
        {
          "internalType": "uint256",
          "name": "hp",
          "type": "uint256"
        },
        {
          "internalType": "uint256",
          "name": "maxHp",
          "type": "uint256"
        },
        {
          "internalType": "uint256",
          "name": "attackDamage",
          "type": "uint256"
        }
      ],
      "stateMutability": "view",
      "type": "function"
    },
    {
      "inputs": [
        {
          "internalType": "address",
          "name": "",
          "type": "address"
        },
        {
          "internalType": "uint256",
          "name": "",
          "type": "uint256"
        }
      ],
      "name": "nftHolders",
      "outputs": [
        {
          "internalType": "uint256",
          "name": "",
          "type": "uint256"
        }
      ],
      "stateMutability": "view",
      "type": "function"
    },
    {
      "inputs": [
        {
          "internalType": "uint256",
          "name": "tokenId",
          "type": "uint256"
        }
      ],
      "name": "ownerOf",
      "outputs": [
        {
          "internalType": "address",
          "name": "",
          "type": "address"
        }
      ],
      "stateMutability": "view",
      "type": "function"
    },
    {
      "inputs": [
        {
          "internalType": "address",
          "name": "from",
          "type": "address"
        },
        {
          "internalType": "address",
          "name": "to",
          "type": "address"
        },
        {
          "internalType": "uint256",
          "name": "tokenId",
          "type": "uint256"
        }
      ],
      "name": "safeTransferFrom",
      "outputs": [],
      "stateMutability": "nonpayable",
      "type": "function"
    },
    {
      "inputs": [
        {
          "internalType": "address",
          "name": "from",
          "type": "address"
        },
        {
          "internalType": "address",
          "name": "to",
          "type": "address"
        },
        {
          "internalType": "uint256",
          "name": "tokenId",
          "type": "uint256"
        },
        {
          "internalType": "bytes",
          "name": "data",
          "type": "bytes"
        }
      ],
      "name": "safeTransferFrom",
      "outputs": [],
      "stateMutability": "nonpayable",
      "type": "function"
    },
    {
      "inputs": [
        {
          "internalType": "address",
          "name": "operator",
          "type": "address"
        },
        {
          "internalType": "bool",
          "name": "approved",
          "type": "bool"
        }
      ],
      "name": "setApprovalForAll",
      "outputs": [],
      "stateMutability": "nonpayable",
      "type": "function"
    },
    {
      "inputs": [
        {
          "internalType": "bytes4",
          "name": "interfaceId",
          "type": "bytes4"
        }
      ],
      "name": "supportsInterface",
      "outputs": [
        {
          "internalType": "bool",
          "name": "",
          "type": "bool"
        }
      ],
      "stateMutability": "view",
      "type": "function"
    },
    {
      "inputs": [],
      "name": "symbol",
      "outputs": [
        {
          "internalType": "string",
          "name": "",
          "type": "string"
        }
      ],
      "stateMutability": "view",
      "type": "function"
    },
    {
      "inputs": [
        {
          "internalType": "uint256",
          "name": "_tokenId",
          "type": "uint256"
        }
      ],
      "name": "tokenURI",
      "outputs": [
        {
          "internalType": "string",
          "name": "",
          "type": "string"
        }
      ],
      "stateMutability": "view",
      "type": "function"
    },
    {
      "inputs": [
        {
          "internalType": "address",
          "name": "from",
          "type": "address"
        },
        {
          "internalType": "address",
          "name": "to",
          "type": "address"
        },
        {
          "internalType": "uint256",
          "name": "tokenId",
          "type": "uint256"
        }
      ],
      "name": "transferFrom",
      "outputs": [],
      "stateMutability": "nonpayable",
      "type": "function"
    }
  ],
  "bytecode": "0x608060405260006006553480156200001657600080fd5b50604051620062d3380380620062d383398181016040528101906200003c919062000a8f565b6040518060400160405280600681526020017f4865726f657300000000000000000000000000000000000000000000000000008152506040518060400160405280600481526020017f4865726f000000000000000000000000000000000000000000000000000000008152508160009081620000b9919062000e53565b508060019081620000cb919062000e53565b5050506040518060a0016040528085815260200184815260200183815260200183815260200182815250600760008201518160000190816200010e919062000e53565b50602082015181600101908162000126919062000e53565b50604082015181600201556060820151816003015560808201518160040155905050620002a96040518060600160405280602a8152602001620062a9602a913960076000018054620001789062000c4c565b80601f0160208091040260200160405190810160405280929190818152602001828054620001a69062000c4c565b8015620001f75780601f10620001cb57610100808354040283529160200191620001f7565b820191906000526020600020905b815481529060010190602001808311620001d957829003601f168201915b505050505060076002015460076001018054620002149062000c4c565b80601f0160208091040260200160405190810160405280929190818152602001828054620002429062000c4c565b8015620002935780601f10620002675761010080835404028352916020019162000293565b820191906000526020600020905b8154815290600101906020018083116200027557829003601f168201915b50505050506200060460201b620020af1760201c565b60005b8851811015620005de57600d6040518060c001604052808381526020018b8481518110620002df57620002de62000f3a565b5b602002602001015181526020018a848151811062000302576200030162000f3a565b5b6020026020010151815260200189848151811062000325576200032462000f3a565b5b6020026020010151815260200189848151811062000348576200034762000f3a565b5b602002602001015181526020018884815181106200036b576200036a62000f3a565b5b60200260200101518152509080600181540180825580915050600190039060005260206000209060060201600090919091909150600082015181600001556020820151816001019081620003c0919062000e53565b506040820151816002019081620003d8919062000e53565b50606082015181600301556080820151816004015560a0820151816005015550506000600d828154811062000412576200041162000f3a565b5b90600052602060002090600602016040518060c001604052908160008201548152602001600182018054620004479062000c4c565b80601f0160208091040260200160405190810160405280929190818152602001828054620004759062000c4c565b8015620004c65780601f106200049a57610100808354040283529160200191620004c6565b820191906000526020600020905b815481529060010190602001808311620004a857829003601f168201915b50505050508152602001600282018054620004e19062000c4c565b80601f01602080910402602001604051908101604052809291908181526020018280546200050f9062000c4c565b8015620005605780601f10620005345761010080835404028352916020019162000560565b820191906000526020600020905b8154815290600101906020018083116200054257829003601f168201915b5050505050815260200160038201548152602001600482015481526020016005820154815250509050620005c760405180606001604052806025815260200162006284602591398260200151836060015184604001516200060460201b620020af1760201c565b508080620005d59062000f98565b915050620002ac565b50620005f6600c620006b060201b620021511760201c565b5050505050505050620010aa565b620006aa8484848460405160240162000621949392919062001048565b6040516020818303038152906040527f5d1a971a000000000000000000000000000000000000000000000000000000007bffffffffffffffffffffffffffffffffffffffffffffffffffffffff19166020820180517bffffffffffffffffffffffffffffffffffffffffffffffffffffffff8381831617835250505050620006c660201b60201c565b50505050565b6001816000016000828254019250508190555050565b60008151905060006a636f6e736f6c652e6c6f679050602083016000808483855afa5050505050565b6000604051905090565b600080fd5b600080fd5b600080fd5b6000601f19601f8301169050919050565b7f4e487b7100000000000000000000000000000000000000000000000000000000600052604160045260246000fd5b620007538262000708565b810181811067ffffffffffffffff8211171562000775576200077462000719565b5b80604052505050565b60006200078a620006ef565b905062000798828262000748565b919050565b600067ffffffffffffffff821115620007bb57620007ba62000719565b5b602082029050602081019050919050565b600080fd5b600080fd5b600067ffffffffffffffff821115620007f457620007f362000719565b5b620007ff8262000708565b9050602081019050919050565b60005b838110156200082c5780820151818401526020810190506200080f565b60008484015250505050565b60006200084f6200084984620007d6565b6200077e565b9050828152602081018484840111156200086e576200086d620007d1565b5b6200087b8482856200080c565b509392505050565b600082601f8301126200089b576200089a62000703565b5b8151620008ad84826020860162000838565b91505092915050565b6000620008cd620008c7846200079d565b6200077e565b90508083825260208201905060208402830185811115620008f357620008f2620007cc565b5b835b818110156200094157805167ffffffffffffffff8111156200091c576200091b62000703565b5b8086016200092b898262000883565b85526020850194505050602081019050620008f5565b5050509392505050565b600082601f83011262000963576200096262000703565b5b815162000975848260208601620008b6565b91505092915050565b600067ffffffffffffffff8211156200099c576200099b62000719565b5b602082029050602081019050919050565b6000819050919050565b620009c281620009ad565b8114620009ce57600080fd5b50565b600081519050620009e281620009b7565b92915050565b6000620009ff620009f9846200097e565b6200077e565b9050808382526020820190506020840283018581111562000a255762000a24620007cc565b5b835b8181101562000a52578062000a3d8882620009d1565b84526020840193505060208101905062000a27565b5050509392505050565b600082601f83011262000a745762000a7362000703565b5b815162000a86848260208601620009e8565b91505092915050565b600080600080600080600080610100898b03121562000ab35762000ab2620006f9565b5b600089015167ffffffffffffffff81111562000ad45762000ad3620006fe565b5b62000ae28b828c016200094b565b985050602089015167ffffffffffffffff81111562000b065762000b05620006fe565b5b62000b148b828c016200094b565b975050604089015167ffffffffffffffff81111562000b385762000b37620006fe565b5b62000b468b828c0162000a5c565b965050606089015167ffffffffffffffff81111562000b6a5762000b69620006fe565b5b62000b788b828c0162000a5c565b955050608089015167ffffffffffffffff81111562000b9c5762000b9b620006fe565b5b62000baa8b828c0162000883565b94505060a089015167ffffffffffffffff81111562000bce5762000bcd620006fe565b5b62000bdc8b828c0162000883565b93505060c062000bef8b828c01620009d1565b92505060e062000c028b828c01620009d1565b9150509295985092959890939650565b600081519050919050565b7f4e487b7100000000000000000000000000000000000000000000000000000000600052602260045260246000fd5b6000600282049050600182168062000c6557607f821691505b60208210810362000c7b5762000c7a62000c1d565b5b50919050565b60008190508160005260206000209050919050565b60006020601f8301049050919050565b600082821b905092915050565b60006008830262000ce57fffffffffffffffffffffffffffffffffffffffffffffffffffffffffffffffff8262000ca6565b62000cf1868362000ca6565b95508019841693508086168417925050509392505050565b6000819050919050565b600062000d3462000d2e62000d2884620009ad565b62000d09565b620009ad565b9050919050565b6000819050919050565b62000d508362000d13565b62000d6862000d5f8262000d3b565b84845462000cb3565b825550505050565b600090565b62000d7f62000d70565b62000d8c81848462000d45565b505050565b5b8181101562000db45762000da860008262000d75565b60018101905062000d92565b5050565b601f82111562000e035762000dcd8162000c81565b62000dd88462000c96565b8101602085101562000de8578190505b62000e0062000df78562000c96565b83018262000d91565b50505b505050565b600082821c905092915050565b600062000e286000198460080262000e08565b1980831691505092915050565b600062000e43838362000e15565b9150826002028217905092915050565b62000e5e8262000c12565b67ffffffffffffffff81111562000e7a5762000e7962000719565b5b62000e86825462000c4c565b62000e9382828562000db8565b600060209050601f83116001811462000ecb576000841562000eb6578287015190505b62000ec2858262000e35565b86555062000f32565b601f19841662000edb8662000c81565b60005b8281101562000f055784890151825560018201915060208501945060208101905062000ede565b8683101562000f25578489015162000f21601f89168262000e15565b8355505b6001600288020188555050505b505050505050565b7f4e487b7100000000000000000000000000000000000000000000000000000000600052603260045260246000fd5b7f4e487b7100000000000000000000000000000000000000000000000000000000600052601160045260246000fd5b600062000fa582620009ad565b91507fffffffffffffffffffffffffffffffffffffffffffffffffffffffffffffffff820362000fda5762000fd962000f69565b5b600182019050919050565b600082825260208201905092915050565b6000620010038262000c12565b6200100f818562000fe5565b9350620010218185602086016200080c565b6200102c8162000708565b840191505092915050565b6200104281620009ad565b82525050565b6000608082019050818103600083015262001064818762000ff6565b905081810360208301526200107a818662000ff6565b90506200108b604083018562001037565b81810360608301526200109f818462000ff6565b905095945050505050565b6151ca80620010ba6000396000f3fe608060405234801561001057600080fd5b50600436106101375760003560e01c8063775bb50e116100b8578063b953084e1161007c578063b953084e14610350578063c87b56dd1461036e578063c8cf27f41461039e578063d4b5d603146103bd578063e985e9c5146103f2578063f8b81ef71461042257610137565b8063775bb50e146102a857806395d89b41146102d8578063a22cb465146102f6578063a9c3267914610312578063b88d4fde1461033457610137565b8063095ea7b3116100ff578063095ea7b3146101f457806323b872dd1461021057806342842e0e1461022c5780636352211e1461024857806370a082311461027857610137565b806301ffc9a71461013c5780630619f9321461016c5780630665f9611461018857806306fdde03146101a6578063081812fc146101c4575b600080fd5b6101566004803603810190610151919061341e565b61043e565b6040516101639190613466565b60405180910390f35b610186600480360381019061018191906134b7565b610520565b005b610190610d61565b60405161019d9190613600565b60405180910390f35b6101ae610ebd565b6040516101bb919061366c565b60405180910390f35b6101de60048036038101906101d991906134b7565b610f4f565b6040516101eb91906136cf565b60405180910390f35b61020e60048036038101906102099190613716565b610f95565b005b61022a60048036038101906102259190613756565b6110ac565b005b61024660048036038101906102419190613756565b61110c565b005b610262600480360381019061025d91906134b7565b61112c565b60405161026f91906136cf565b60405180910390f35b610292600480360381019061028d91906137a9565b6111dd565b60405161029f91906137e5565b60405180910390f35b6102c260048036038101906102bd9190613716565b611294565b6040516102cf91906137e5565b60405180910390f35b6102e06112c5565b6040516102ed919061366c565b60405180910390f35b610310600480360381019061030b919061382c565b611357565b005b61031a61136d565b60405161032b95949392919061386c565b60405180910390f35b61034e60048036038101906103499190613a02565b6114a1565b005b610358611503565b6040516103659190613bd7565b60405180910390f35b610388600480360381019061038391906134b7565b6116ae565b604051610395919061366c565b60405180910390f35b6103a66118c9565b6040516103b4929190613ca8565b60405180910390f35b6103d760048036038101906103d291906134b7565b611b85565b6040516103e996959493929190613cdf565b60405180910390f35b61040c60048036038101906104079190613d4e565b611cd1565b6040516104199190613466565b60405180910390f35b61043c600480360381019061043791906134b7565b611d65565b005b60007f80ac58cd000000000000000000000000000000000000000000000000000000007bffffffffffffffffffffffffffffffffffffffffffffffffffffffff1916827bffffffffffffffffffffffffffffffffffffffffffffffffffffffff1916148061050957507f5b5e139f000000000000000000000000000000000000000000000000000000007bffffffffffffffffffffffffffffffffffffffffffffffffffffffff1916827bffffffffffffffffffffffffffffffffffffffffffffffffffffffff1916145b80610519575061051882612167565b5b9050919050565b6000600e600083815260200190815260200160002090506105ef6040518060600160405280603c8152602001615159603c913982600101805461056290613dbd565b80601f016020809104026020016040519081016040528092919081815260200182805461058e90613dbd565b80156105db5780601f106105b0576101008083540402835291602001916105db565b820191906000526020600020905b8154815290600101906020018083116105be57829003601f168201915b5050505050836003015484600501546121d1565b6106c76040518060400160405280601b81526020017f426f73732025732068617320257320485020616e6420257320414400000000008152506007600001805461063890613dbd565b80601f016020809104026020016040519081016040528092919081815260200182805461066490613dbd565b80156106b15780601f10610686576101008083540402835291602001916106b1565b820191906000526020600020905b81548152906001019060200180831161069457829003601f168201915b50505050506007600201546007600401546121d1565b600081600301541161070e576040517f08c379a000000000000000000000000000000000000000000000000000000000815260040161070590613e60565b60405180910390fd5b600060076002015411610756576040517f08c379a000000000000000000000000000000000000000000000000000000000815260040161074d90613ef2565b60405180910390fd5b6108af6040518060400160405280601281526020017f2573207377696e67732061742025732e2e2e000000000000000000000000000081525082600101805461079e90613dbd565b80601f01602080910402602001604051908101604052809291908181526020018280546107ca90613dbd565b80156108175780601f106107ec57610100808354040283529160200191610817565b820191906000526020600020905b8154815290600101906020018083116107fa57829003601f168201915b50505050506007600001805461082c90613dbd565b80601f016020809104026020016040519081016040528092919081815260200182805461085890613dbd565b80156108a55780601f1061087a576101008083540402835291602001916108a5565b820191906000526020600020905b81548152906001019060200180831161088857829003601f168201915b5050505050612273565b60006108bb600a612312565b1061096c578060050154600760020154101561091f57600060076002018190555061091a6040518060400160405280601181526020017f54686520626f737320697320646561642100000000000000000000000000000081525061236e565b610967565b8060050154600760020160008282546109389190613f41565b9250508190555061096660405180606001604052806025815260200161509f60259139600760020154612407565b5b6109ab565b6109aa6040518060400160405280600b81526020017f2573206d6973736564210a00000000000000000000000000000000000000000081525061236e565b5b610b046040518060400160405280601281526020017f2573207377696e67732061742025732e2e2e0000000000000000000000000000815250600760000180546109f490613dbd565b80601f0160208091040260200160405190810160405280929190818152602001828054610a2090613dbd565b8015610a6d5780601f10610a4257610100808354040283529160200191610a6d565b820191906000526020600020905b815481529060010190602001808311610a5057829003601f168201915b5050505050836001018054610a8190613dbd565b80601f0160208091040260200160405190810160405280929190818152602001828054610aad90613dbd565b8015610afa5780601f10610acf57610100808354040283529160200191610afa565b820191906000526020600020905b815481529060010190602001808311610add57829003601f168201915b5050505050612273565b6000610b10600a612312565b10610c4c5760076004015481600301541015610c005760008160030181905550610bfb6040518060400160405280600b81526020017f2573206973206465616421000000000000000000000000000000000000000000815250826001018054610b7890613dbd565b80601f0160208091040260200160405190810160405280929190818152602001828054610ba490613dbd565b8015610bf15780601f10610bc657610100808354040283529160200191610bf1565b820191906000526020600020905b815481529060010190602001808311610bd457829003601f168201915b50505050506124a3565b610c47565b600760040154816003016000828254610c199190613f41565b92505081905550610c46604051806060016040528060278152602001615132602791398260030154612407565b5b610d19565b610d186040518060400160405280600b81526020017f2573206d6973736564210a00000000000000000000000000000000000000000081525060076000018054610c9590613dbd565b80601f0160208091040260200160405190810160405280929190818152602001828054610cc190613dbd565b8015610d0e5780601f10610ce357610100808354040283529160200191610d0e565b820191906000526020600020905b815481529060010190602001808311610cf157829003601f168201915b50505050506124a3565b5b7f32bd565ee3f2cb5ddd742bbecd6048d3e9abe90b3827a40c2b72d232e71e3c9d336007600201548360030154604051610d5593929190613f75565b60405180910390a15050565b610d6961334d565b60076040518060a0016040529081600082018054610d8690613dbd565b80601f0160208091040260200160405190810160405280929190818152602001828054610db290613dbd565b8015610dff5780601f10610dd457610100808354040283529160200191610dff565b820191906000526020600020905b815481529060010190602001808311610de257829003601f168201915b50505050508152602001600182018054610e1890613dbd565b80601f0160208091040260200160405190810160405280929190818152602001828054610e4490613dbd565b8015610e915780601f10610e6657610100808354040283529160200191610e91565b820191906000526020600020905b815481529060010190602001808311610e7457829003601f168201915b505050505081526020016002820154815260200160038201548152602001600482015481525050905090565b606060008054610ecc90613dbd565b80601f0160208091040260200160405190810160405280929190818152602001828054610ef890613dbd565b8015610f455780601f10610f1a57610100808354040283529160200191610f45565b820191906000526020600020905b815481529060010190602001808311610f2857829003601f168201915b5050505050905090565b6000610f5a8261253f565b6004600083815260200190815260200160002060009054906101000a900473ffffffffffffffffffffffffffffffffffffffff169050919050565b6000610fa08261112c565b90508073ffffffffffffffffffffffffffffffffffffffff168373ffffffffffffffffffffffffffffffffffffffff1603611010576040517f08c379a00000000000000000000000000000000000000000000000000000000081526004016110079061401e565b60405180910390fd5b8073ffffffffffffffffffffffffffffffffffffffff1661102f61258a565b73ffffffffffffffffffffffffffffffffffffffff16148061105e575061105d8161105861258a565b611cd1565b5b61109d576040517f08c379a0000000000000000000000000000000000000000000000000000000008152600401611094906140b0565b60405180910390fd5b6110a78383612592565b505050565b6110bd6110b761258a565b8261264b565b6110fc576040517f08c379a00000000000000000000000000000000000000000000000000000000081526004016110f390614142565b60405180910390fd5b6111078383836126e0565b505050565b611127838383604051806020016040528060008152506114a1565b505050565b6000806002600084815260200190815260200160002060009054906101000a900473ffffffffffffffffffffffffffffffffffffffff169050600073ffffffffffffffffffffffffffffffffffffffff168173ffffffffffffffffffffffffffffffffffffffff16036111d4576040517f08c379a00000000000000000000000000000000000000000000000000000000081526004016111cb906141ae565b60405180910390fd5b80915050919050565b60008073ffffffffffffffffffffffffffffffffffffffff168273ffffffffffffffffffffffffffffffffffffffff160361124d576040517f08c379a000000000000000000000000000000000000000000000000000000000815260040161124490614240565b60405180910390fd5b600360008373ffffffffffffffffffffffffffffffffffffffff1673ffffffffffffffffffffffffffffffffffffffff168152602001908152602001600020549050919050565b600f60205281600052604060002081815481106112b057600080fd5b90600052602060002001600091509150505481565b6060600180546112d490613dbd565b80601f016020809104026020016040519081016040528092919081815260200182805461130090613dbd565b801561134d5780601f106113225761010080835404028352916020019161134d565b820191906000526020600020905b81548152906001019060200180831161133057829003601f168201915b5050505050905090565b61136961136261258a565b8383612946565b5050565b600780600001805461137e90613dbd565b80601f01602080910402602001604051908101604052809291908181526020018280546113aa90613dbd565b80156113f75780601f106113cc576101008083540402835291602001916113f7565b820191906000526020600020905b8154815290600101906020018083116113da57829003601f168201915b50505050509080600101805461140c90613dbd565b80601f016020809104026020016040519081016040528092919081815260200182805461143890613dbd565b80156114855780601f1061145a57610100808354040283529160200191611485565b820191906000526020600020905b81548152906001019060200180831161146857829003601f168201915b5050505050908060020154908060030154908060040154905085565b6114b26114ac61258a565b8361264b565b6114f1576040517f08c379a00000000000000000000000000000000000000000000000000000000081526004016114e890614142565b60405180910390fd5b6114fd84848484612ab2565b50505050565b6060600d805480602002602001604051908101604052809291908181526020016000905b828210156116a557838290600052602060002090600602016040518060c00160405290816000820154815260200160018201805461156490613dbd565b80601f016020809104026020016040519081016040528092919081815260200182805461159090613dbd565b80156115dd5780601f106115b2576101008083540402835291602001916115dd565b820191906000526020600020905b8154815290600101906020018083116115c057829003601f168201915b505050505081526020016002820180546115f690613dbd565b80601f016020809104026020016040519081016040528092919081815260200182805461162290613dbd565b801561166f5780601f106116445761010080835404028352916020019161166f565b820191906000526020600020905b81548152906001019060200180831161165257829003601f168201915b50505050508152602001600382015481526020016004820154815260200160058201548152505081526020019060010190611527565b50505050905090565b60606000600e60008481526020019081526020016000206040518060c0016040529081600082015481526020016001820180546116ea90613dbd565b80601f016020809104026020016040519081016040528092919081815260200182805461171690613dbd565b80156117635780601f1061173857610100808354040283529160200191611763565b820191906000526020600020905b81548152906001019060200180831161174657829003601f168201915b5050505050815260200160028201805461177c90613dbd565b80601f01602080910402602001604051908101604052809291908181526020018280546117a890613dbd565b80156117f55780601f106117ca576101008083540402835291602001916117f5565b820191906000526020600020905b8154815290600101906020018083116117d857829003601f168201915b5050505050815260200160038201548152602001600482015481526020016005820154815250509050600061182d8260600151612b0e565b9050600061183e8360800151612b0e565b9050600061184f8460a00151612b0e565b90506000611895856020015161186489612b0e565b87604001518787876040516020016118819695949392919061456e565b604051602081830303815290604052612c6e565b90506000816040516020016118aa919061465f565b6040516020818303038152906040529050809650505050505050919050565b6060806000600f60003373ffffffffffffffffffffffffffffffffffffffff1673ffffffffffffffffffffffffffffffffffffffff16815260200190815260200160002080548060200260200160405190810160405280929190818152602001828054801561195757602002820191906000526020600020905b815481526020019060010190808311611943575b505050505090506000815167ffffffffffffffff81111561197b5761197a6138d7565b5b6040519080825280602002602001820160405280156119b457816020015b6119a161337c565b8152602001906001900390816119995790505b50905060005b8251811015611b7857600e60008483815181106119da576119d9614681565b5b602002602001015181526020019081526020016000206040518060c001604052908160008201548152602001600182018054611a1590613dbd565b80601f0160208091040260200160405190810160405280929190818152602001828054611a4190613dbd565b8015611a8e5780601f10611a6357610100808354040283529160200191611a8e565b820191906000526020600020905b815481529060010190602001808311611a7157829003601f168201915b50505050508152602001600282018054611aa790613dbd565b80601f0160208091040260200160405190810160405280929190818152602001828054611ad390613dbd565b8015611b205780601f10611af557610100808354040283529160200191611b20565b820191906000526020600020905b815481529060010190602001808311611b0357829003601f168201915b505050505081526020016003820154815260200160048201548152602001600582015481525050828281518110611b5a57611b59614681565b5b60200260200101819052508080611b70906146b0565b9150506119ba565b5080829350935050509091565b600e602052806000526040600020600091509050806000015490806001018054611bae90613dbd565b80601f0160208091040260200160405190810160405280929190818152602001828054611bda90613dbd565b8015611c275780601f10611bfc57610100808354040283529160200191611c27565b820191906000526020600020905b815481529060010190602001808311611c0a57829003601f168201915b505050505090806002018054611c3c90613dbd565b80601f0160208091040260200160405190810160405280929190818152602001828054611c6890613dbd565b8015611cb55780601f10611c8a57610100808354040283529160200191611cb5565b820191906000526020600020905b815481529060010190602001808311611c9857829003601f168201915b5050505050908060030154908060040154908060050154905086565b6000600560008473ffffffffffffffffffffffffffffffffffffffff1673ffffffffffffffffffffffffffffffffffffffff16815260200190815260200160002060008373ffffffffffffffffffffffffffffffffffffffff1673ffffffffffffffffffffffffffffffffffffffff16815260200190815260200160002060009054906101000a900460ff16905092915050565b6000611d71600c612e05565b9050611d7d3382612e13565b6040518060c00160405280838152602001600d8481548110611da257611da1614681565b5b90600052602060002090600602016001018054611dbe90613dbd565b80601f0160208091040260200160405190810160405280929190818152602001828054611dea90613dbd565b8015611e375780601f10611e0c57610100808354040283529160200191611e37565b820191906000526020600020905b815481529060010190602001808311611e1a57829003601f168201915b50505050508152602001600d8481548110611e5557611e54614681565b5b90600052602060002090600602016002018054611e7190613dbd565b80601f0160208091040260200160405190810160405280929190818152602001828054611e9d90613dbd565b8015611eea5780601f10611ebf57610100808354040283529160200191611eea565b820191906000526020600020905b815481529060010190602001808311611ecd57829003601f168201915b50505050508152602001600d8481548110611f0857611f07614681565b5b9060005260206000209060060201600301548152602001600d8481548110611f3357611f32614681565b5b9060005260206000209060060201600401548152602001600d8481548110611f5e57611f5d614681565b5b906000526020600020906006020160050154815250600e6000838152602001908152602001600020600082015181600001556020820151816001019081611fa591906148a4565b506040820151816002019081611fbb91906148a4565b50606082015181600301556080820151816004015560a082015181600501559050506120006040518060600160405280602e8152602001615104602e91398284612e31565b600f60003373ffffffffffffffffffffffffffffffffffffffff1673ffffffffffffffffffffffffffffffffffffffff168152602001908152602001600020819080600181540180825580915050600190039060005260206000200160009091909190915055612070600c612151565b7f4bc303fd457a97b4691b9af582ce71868a3d258638c8d4f8c60988a0f0bfb8cd3382846040516120a393929190613f75565b60405180910390a15050565b61214b848484846040516024016120c99493929190614976565b6040516020818303038152906040527f5d1a971a000000000000000000000000000000000000000000000000000000007bffffffffffffffffffffffffffffffffffffffffffffffffffffffff19166020820180517bffffffffffffffffffffffffffffffffffffffffffffffffffffffff8381831617835250505050612ed0565b50505050565b6001816000016000828254019250508190555050565b60007f01ffc9a7000000000000000000000000000000000000000000000000000000007bffffffffffffffffffffffffffffffffffffffffffffffffffffffff1916827bffffffffffffffffffffffffffffffffffffffffffffffffffffffff1916149050919050565b61226d848484846040516024016121eb94939291906149d0565b6040516020818303038152906040527ff45d7d2c000000000000000000000000000000000000000000000000000000007bffffffffffffffffffffffffffffffffffffffffffffffffffffffff19166020820180517bffffffffffffffffffffffffffffffffffffffffffffffffffffffff8381831617835250505050612ed0565b50505050565b61230d83838360405160240161228b93929190614a23565b6040516020818303038152906040527f2ced7cef000000000000000000000000000000000000000000000000000000007bffffffffffffffffffffffffffffffffffffffffffffffffffffffff19166020820180517bffffffffffffffffffffffffffffffffffffffffffffffffffffffff8381831617835250505050612ed0565b505050565b600060066000815480929190612327906146b0565b919050555081423360065460405160200161234493929190614ad8565b6040516020818303038152906040528051906020012060001c6123679190614b44565b9050919050565b61240481604051602401612382919061366c565b6040516020818303038152906040527f41304fac000000000000000000000000000000000000000000000000000000007bffffffffffffffffffffffffffffffffffffffffffffffffffffffff19166020820180517bffffffffffffffffffffffffffffffffffffffffffffffffffffffff8381831617835250505050612ed0565b50565b61249f828260405160240161241d929190614b75565b6040516020818303038152906040527fb60e72cc000000000000000000000000000000000000000000000000000000007bffffffffffffffffffffffffffffffffffffffffffffffffffffffff19166020820180517bffffffffffffffffffffffffffffffffffffffffffffffffffffffff8381831617835250505050612ed0565b5050565b61253b82826040516024016124b9929190614ba5565b6040516020818303038152906040527f4b5c4277000000000000000000000000000000000000000000000000000000007bffffffffffffffffffffffffffffffffffffffffffffffffffffffff19166020820180517bffffffffffffffffffffffffffffffffffffffffffffffffffffffff8381831617835250505050612ed0565b5050565b61254881612ef9565b612587576040517f08c379a000000000000000000000000000000000000000000000000000000000815260040161257e906141ae565b60405180910390fd5b50565b600033905090565b816004600083815260200190815260200160002060006101000a81548173ffffffffffffffffffffffffffffffffffffffff021916908373ffffffffffffffffffffffffffffffffffffffff160217905550808273ffffffffffffffffffffffffffffffffffffffff166126058361112c565b73ffffffffffffffffffffffffffffffffffffffff167f8c5be1e5ebec7d5bd14f71427d1e84f3dd0314c0f7b2291e5b200ac8c7c3b92560405160405180910390a45050565b6000806126578361112c565b90508073ffffffffffffffffffffffffffffffffffffffff168473ffffffffffffffffffffffffffffffffffffffff16148061269957506126988185611cd1565b5b806126d757508373ffffffffffffffffffffffffffffffffffffffff166126bf84610f4f565b73ffffffffffffffffffffffffffffffffffffffff16145b91505092915050565b8273ffffffffffffffffffffffffffffffffffffffff166127008261112c565b73ffffffffffffffffffffffffffffffffffffffff1614612756576040517f08c379a000000000000000000000000000000000000000000000000000000000815260040161274d90614c4e565b60405180910390fd5b600073ffffffffffffffffffffffffffffffffffffffff168273ffffffffffffffffffffffffffffffffffffffff16036127c5576040517f08c379a00000000000000000000000000000000000000000000000000000000081526004016127bc90614ce0565b60405180910390fd5b6127d0838383612f65565b6127db600082612592565b6001600360008573ffffffffffffffffffffffffffffffffffffffff1673ffffffffffffffffffffffffffffffffffffffff168152602001908152602001600020600082825461282b9190613f41565b925050819055506001600360008473ffffffffffffffffffffffffffffffffffffffff1673ffffffffffffffffffffffffffffffffffffffff16815260200190815260200160002060008282546128829190614d00565b92505081905550816002600083815260200190815260200160002060006101000a81548173ffffffffffffffffffffffffffffffffffffffff021916908373ffffffffffffffffffffffffffffffffffffffff160217905550808273ffffffffffffffffffffffffffffffffffffffff168473ffffffffffffffffffffffffffffffffffffffff167fddf252ad1be2c89b69c2b068fc378daa952ba7f163c4a11628f55a4df523b3ef60405160405180910390a4612941838383612f6a565b505050565b8173ffffffffffffffffffffffffffffffffffffffff168373ffffffffffffffffffffffffffffffffffffffff16036129b4576040517f08c379a00000000000000000000000000000000000000000000000000000000081526004016129ab90614d80565b60405180910390fd5b80600560008573ffffffffffffffffffffffffffffffffffffffff1673ffffffffffffffffffffffffffffffffffffffff16815260200190815260200160002060008473ffffffffffffffffffffffffffffffffffffffff1673ffffffffffffffffffffffffffffffffffffffff16815260200190815260200160002060006101000a81548160ff0219169083151502179055508173ffffffffffffffffffffffffffffffffffffffff168373ffffffffffffffffffffffffffffffffffffffff167f17307eab39ab6107e8899845ad3d59bd9653f200f220920489ca2b5937696c3183604051612aa59190613466565b60405180910390a3505050565b612abd8484846126e0565b612ac984848484612f6f565b612b08576040517f08c379a0000000000000000000000000000000000000000000000000000000008152600401612aff90614e12565b60405180910390fd5b50505050565b606060008203612b55576040518060400160405280600181526020017f30000000000000000000000000000000000000000000000000000000000000008152509050612c69565b600082905060005b60008214612b87578080612b70906146b0565b915050600a82612b809190614e32565b9150612b5d565b60008167ffffffffffffffff811115612ba357612ba26138d7565b5b6040519080825280601f01601f191660200182016040528015612bd55781602001600182028036833780820191505090505b5090505b60008514612c6257600182612bee9190613f41565b9150600a85612bfd9190614b44565b6030612c099190614d00565b60f81b818381518110612c1f57612c1e614681565b5b60200101907effffffffffffffffffffffffffffffffffffffffffffffffffffffffffffff1916908160001a905350600a85612c5b9190614e32565b9450612bd9565b8093505050505b919050565b606060008251905060008103612c965760405180602001604052806000815250915050612e00565b60006003600283612ca79190614d00565b612cb19190614e32565b6004612cbd9190614e63565b90506000602082612cce9190614d00565b67ffffffffffffffff811115612ce757612ce66138d7565b5b6040519080825280601f01601f191660200182016040528015612d195781602001600182028036833780820191505090505b50905060006040518060600160405280604081526020016150c4604091399050600181016020830160005b86811015612dbd5760038101905062ffffff818a015116603f8160121c168401518060081b905060ff603f83600c1c1686015116810190508060081b905060ff603f8360061c1686015116810190508060081b905060ff603f831686015116810190508060e01b90508084526004840193505050612d44565b506003860660018114612dd75760028114612de757612df2565b613d3d60f01b6002830352612df2565b603d60f81b60018303525b508484525050819450505050505b919050565b600081600001549050919050565b612e2d8282604051806020016040528060008152506130f6565b5050565b612ecb838383604051602401612e4993929190614ea5565b6040516020818303038152906040527fca47c4eb000000000000000000000000000000000000000000000000000000007bffffffffffffffffffffffffffffffffffffffffffffffffffffffff19166020820180517bffffffffffffffffffffffffffffffffffffffffffffffffffffffff8381831617835250505050612ed0565b505050565b60008151905060006a636f6e736f6c652e6c6f679050602083016000808483855afa5050505050565b60008073ffffffffffffffffffffffffffffffffffffffff166002600084815260200190815260200160002060009054906101000a900473ffffffffffffffffffffffffffffffffffffffff1673ffffffffffffffffffffffffffffffffffffffff1614159050919050565b505050565b505050565b6000612f908473ffffffffffffffffffffffffffffffffffffffff16613151565b156130e9578373ffffffffffffffffffffffffffffffffffffffff1663150b7a02612fb961258a565b8786866040518563ffffffff1660e01b8152600401612fdb9493929190614f38565b6020604051808303816000875af192505050801561301757506040513d601f19601f820116820180604052508101906130149190614f99565b60015b613099573d8060008114613047576040519150601f19603f3d011682016040523d82523d6000602084013e61304c565b606091505b506000815103613091576040517f08c379a000000000000000000000000000000000000000000000000000000000815260040161308890614e12565b60405180910390fd5b805181602001fd5b63150b7a0260e01b7bffffffffffffffffffffffffffffffffffffffffffffffffffffffff1916817bffffffffffffffffffffffffffffffffffffffffffffffffffffffff1916149150506130ee565b600190505b949350505050565b6131008383613174565b61310d6000848484612f6f565b61314c576040517f08c379a000000000000000000000000000000000000000000000000000000000815260040161314390614e12565b60405180910390fd5b505050565b6000808273ffffffffffffffffffffffffffffffffffffffff163b119050919050565b600073ffffffffffffffffffffffffffffffffffffffff168273ffffffffffffffffffffffffffffffffffffffff16036131e3576040517f08c379a00000000000000000000000000000000000000000000000000000000081526004016131da90615012565b60405180910390fd5b6131ec81612ef9565b1561322c576040517f08c379a00000000000000000000000000000000000000000000000000000000081526004016132239061507e565b60405180910390fd5b61323860008383612f65565b6001600360008473ffffffffffffffffffffffffffffffffffffffff1673ffffffffffffffffffffffffffffffffffffffff16815260200190815260200160002060008282546132889190614d00565b92505081905550816002600083815260200190815260200160002060006101000a81548173ffffffffffffffffffffffffffffffffffffffff021916908373ffffffffffffffffffffffffffffffffffffffff160217905550808273ffffffffffffffffffffffffffffffffffffffff16600073ffffffffffffffffffffffffffffffffffffffff167fddf252ad1be2c89b69c2b068fc378daa952ba7f163c4a11628f55a4df523b3ef60405160405180910390a461334960008383612f6a565b5050565b6040518060a0016040528060608152602001606081526020016000815260200160008152602001600081525090565b6040518060c001604052806000815260200160608152602001606081526020016000815260200160008152602001600081525090565b6000604051905090565b600080fd5b600080fd5b60007fffffffff0000000000000000000000000000000000000000000000000000000082169050919050565b6133fb816133c6565b811461340657600080fd5b50565b600081359050613418816133f2565b92915050565b600060208284031215613434576134336133bc565b5b600061344284828501613409565b91505092915050565b60008115159050919050565b6134608161344b565b82525050565b600060208201905061347b6000830184613457565b92915050565b6000819050919050565b61349481613481565b811461349f57600080fd5b50565b6000813590506134b18161348b565b92915050565b6000602082840312156134cd576134cc6133bc565b5b60006134db848285016134a2565b91505092915050565b600081519050919050565b600082825260208201905092915050565b60005b8381101561351e578082015181840152602081019050613503565b60008484015250505050565b6000601f19601f8301169050919050565b6000613546826134e4565b61355081856134ef565b9350613560818560208601613500565b6135698161352a565b840191505092915050565b61357d81613481565b82525050565b600060a08301600083015184820360008601526135a0828261353b565b915050602083015184820360208601526135ba828261353b565b91505060408301516135cf6040860182613574565b5060608301516135e26060860182613574565b5060808301516135f56080860182613574565b508091505092915050565b6000602082019050818103600083015261361a8184613583565b905092915050565b600082825260208201905092915050565b600061363e826134e4565b6136488185613622565b9350613658818560208601613500565b6136618161352a565b840191505092915050565b600060208201905081810360008301526136868184613633565b905092915050565b600073ffffffffffffffffffffffffffffffffffffffff82169050919050565b60006136b98261368e565b9050919050565b6136c9816136ae565b82525050565b60006020820190506136e460008301846136c0565b92915050565b6136f3816136ae565b81146136fe57600080fd5b50565b600081359050613710816136ea565b92915050565b6000806040838503121561372d5761372c6133bc565b5b600061373b85828601613701565b925050602061374c858286016134a2565b9150509250929050565b60008060006060848603121561376f5761376e6133bc565b5b600061377d86828701613701565b935050602061378e86828701613701565b925050604061379f868287016134a2565b9150509250925092565b6000602082840312156137bf576137be6133bc565b5b60006137cd84828501613701565b91505092915050565b6137df81613481565b82525050565b60006020820190506137fa60008301846137d6565b92915050565b6138098161344b565b811461381457600080fd5b50565b60008135905061382681613800565b92915050565b60008060408385031215613843576138426133bc565b5b600061385185828601613701565b925050602061386285828601613817565b9150509250929050565b600060a08201905081810360008301526138868188613633565b9050818103602083015261389a8187613633565b90506138a960408301866137d6565b6138b660608301856137d6565b6138c360808301846137d6565b9695505050505050565b600080fd5b600080fd5b7f4e487b7100000000000000000000000000000000000000000000000000000000600052604160045260246000fd5b61390f8261352a565b810181811067ffffffffffffffff8211171561392e5761392d6138d7565b5b80604052505050565b60006139416133b2565b905061394d8282613906565b919050565b600067ffffffffffffffff82111561396d5761396c6138d7565b5b6139768261352a565b9050602081019050919050565b82818337600083830152505050565b60006139a56139a084613952565b613937565b9050828152602081018484840111156139c1576139c06138d2565b5b6139cc848285613983565b509392505050565b600082601f8301126139e9576139e86138cd565b5b81356139f9848260208601613992565b91505092915050565b60008060008060808587031215613a1c57613a1b6133bc565b5b6000613a2a87828801613701565b9450506020613a3b87828801613701565b9350506040613a4c878288016134a2565b925050606085013567ffffffffffffffff811115613a6d57613a6c6133c1565b5b613a79878288016139d4565b91505092959194509250565b600081519050919050565b600082825260208201905092915050565b6000819050602082019050919050565b600060c083016000830151613ac96000860182613574565b5060208301518482036020860152613ae1828261353b565b91505060408301518482036040860152613afb828261353b565b9150506060830151613b106060860182613574565b506080830151613b236080860182613574565b5060a0830151613b3660a0860182613574565b508091505092915050565b6000613b4d8383613ab1565b905092915050565b6000602082019050919050565b6000613b6d82613a85565b613b778185613a90565b935083602082028501613b8985613aa1565b8060005b85811015613bc55784840389528151613ba68582613b41565b9450613bb183613b55565b925060208a01995050600181019050613b8d565b50829750879550505050505092915050565b60006020820190508181036000830152613bf18184613b62565b905092915050565b600081519050919050565b600082825260208201905092915050565b6000819050602082019050919050565b6000613c318383613574565b60208301905092915050565b6000602082019050919050565b6000613c5582613bf9565b613c5f8185613c04565b9350613c6a83613c15565b8060005b83811015613c9b578151613c828882613c25565b9750613c8d83613c3d565b925050600181019050613c6e565b5085935050505092915050565b60006040820190508181036000830152613cc28185613b62565b90508181036020830152613cd68184613c4a565b90509392505050565b600060c082019050613cf460008301896137d6565b8181036020830152613d068188613633565b90508181036040830152613d1a8187613633565b9050613d2960608301866137d6565b613d3660808301856137d6565b613d4360a08301846137d6565b979650505050505050565b60008060408385031215613d6557613d646133bc565b5b6000613d7385828601613701565b9250506020613d8485828601613701565b9150509250929050565b7f4e487b7100000000000000000000000000000000000000000000000000000000600052602260045260246000fd5b60006002820490506001821680613dd557607f821691505b602082108103613de857613de7613d8e565b5b50919050565b7f4572726f723a20636861726163746572206d757374206861766520485020746f60008201527f2061747461636b20626f73732e00000000000000000000000000000000000000602082015250565b6000613e4a602d83613622565b9150613e5582613dee565b604082019050919050565b60006020820190508181036000830152613e7981613e3d565b9050919050565b7f4572726f723a20626f7373206d757374206861766520485020746f206174746160008201527f636b206368617261637465722e00000000000000000000000000000000000000602082015250565b6000613edc602d83613622565b9150613ee782613e80565b604082019050919050565b60006020820190508181036000830152613f0b81613ecf565b9050919050565b7f4e487b7100000000000000000000000000000000000000000000000000000000600052601160045260246000fd5b6000613f4c82613481565b9150613f5783613481565b9250828203905081811115613f6f57613f6e613f12565b5b92915050565b6000606082019050613f8a60008301866136c0565b613f9760208301856137d6565b613fa460408301846137d6565b949350505050565b7f4552433732313a20617070726f76616c20746f2063757272656e74206f776e6560008201527f7200000000000000000000000000000000000000000000000000000000000000602082015250565b6000614008602183613622565b915061401382613fac565b604082019050919050565b6000602082019050818103600083015261403781613ffb565b9050919050565b7f4552433732313a20617070726f76652063616c6c6572206973206e6f7420746f60008201527f6b656e206f776e6572206e6f7220617070726f76656420666f7220616c6c0000602082015250565b600061409a603e83613622565b91506140a58261403e565b604082019050919050565b600060208201905081810360008301526140c98161408d565b9050919050565b7f4552433732313a2063616c6c6572206973206e6f7420746f6b656e206f776e6560008201527f72206e6f7220617070726f766564000000000000000000000000000000000000602082015250565b600061412c602e83613622565b9150614137826140d0565b604082019050919050565b6000602082019050818103600083015261415b8161411f565b9050919050565b7f4552433732313a20696e76616c696420746f6b656e2049440000000000000000600082015250565b6000614198601883613622565b91506141a382614162565b602082019050919050565b600060208201905081810360008301526141c78161418b565b9050919050565b7f4552433732313a2061646472657373207a65726f206973206e6f74206120766160008201527f6c6964206f776e65720000000000000000000000000000000000000000000000602082015250565b600061422a602983613622565b9150614235826141ce565b604082019050919050565b600060208201905081810360008301526142598161421d565b9050919050565b600081905092915050565b7f7b226e616d65223a202200000000000000000000000000000000000000000000600082015250565b60006142a1600a83614260565b91506142ac8261426b565b600a82019050919050565b60006142c2826134e4565b6142cc8185614260565b93506142dc818560208601613500565b80840191505092915050565b7f202d2d204e465420233a20000000000000000000000000000000000000000000600082015250565b600061431e600b83614260565b9150614329826142e8565b600b82019050919050565b7f222c20226465736372697074696f6e223a20225468697320697320616e204e4660008201527f542074686174206c6574732070656f706c6520706c617920696e20746865206760208201527f616d65204d657461766572736520536c6179657221222c2022696d616765223a60408201527f2022000000000000000000000000000000000000000000000000000000000000606082015250565b60006143dc606283614260565b91506143e782614334565b606282019050919050565b7f222c202261747472696275746573223a205b207b202274726169745f7479706560008201527f223a20224865616c746820506f696e7473222c202276616c7565223a20000000602082015250565b600061444e603d83614260565b9150614459826143f2565b603d82019050919050565b7f2c20226d61785f76616c7565223a000000000000000000000000000000000000600082015250565b600061449a600e83614260565b91506144a582614464565b600e82019050919050565b7f7d2c207b202274726169745f74797065223a202241747461636b2044616d616760008201527f65222c202276616c7565223a2000000000000000000000000000000000000000602082015250565b600061450c602d83614260565b9150614517826144b0565b602d82019050919050565b7f7d205d7d00000000000000000000000000000000000000000000000000000000600082015250565b6000614558600483614260565b915061456382614522565b600482019050919050565b600061457982614294565b915061458582896142b7565b915061459082614311565b915061459c82886142b7565b91506145a7826143cf565b91506145b382876142b7565b91506145be82614441565b91506145ca82866142b7565b91506145d58261448d565b91506145e182856142b7565b91506145ec826144ff565b91506145f882846142b7565b91506146038261454b565b9150819050979650505050505050565b7f646174613a6170706c69636174696f6e2f6a736f6e3b6261736536342c000000600082015250565b6000614649601d83614260565b915061465482614613565b601d82019050919050565b600061466a8261463c565b915061467682846142b7565b915081905092915050565b7f4e487b7100000000000000000000000000000000000000000000000000000000600052603260045260246000fd5b60006146bb82613481565b91507fffffffffffffffffffffffffffffffffffffffffffffffffffffffffffffffff82036146ed576146ec613f12565b5b600182019050919050565b60008190508160005260206000209050919050565b60006020601f8301049050919050565b600082821b905092915050565b60006008830261475a7fffffffffffffffffffffffffffffffffffffffffffffffffffffffffffffffff8261471d565b614764868361471d565b95508019841693508086168417925050509392505050565b6000819050919050565b60006147a161479c61479784613481565b61477c565b613481565b9050919050565b6000819050919050565b6147bb83614786565b6147cf6147c7826147a8565b84845461472a565b825550505050565b600090565b6147e46147d7565b6147ef8184846147b2565b505050565b5b81811015614813576148086000826147dc565b6001810190506147f5565b5050565b601f82111561485857614829816146f8565b6148328461470d565b81016020851015614841578190505b61485561484d8561470d565b8301826147f4565b50505b505050565b600082821c905092915050565b600061487b6000198460080261485d565b1980831691505092915050565b6000614894838361486a565b9150826002028217905092915050565b6148ad826134e4565b67ffffffffffffffff8111156148c6576148c56138d7565b5b6148d08254613dbd565b6148db828285614817565b600060209050601f83116001811461490e57600084156148fc578287015190505b6149068582614888565b86555061496e565b601f19841661491c866146f8565b60005b828110156149445784890151825560018201915060208501945060208101905061491f565b86831015614961578489015161495d601f89168261486a565b8355505b6001600288020188555050505b505050505050565b600060808201905081810360008301526149908187613633565b905081810360208301526149a48186613633565b90506149b360408301856137d6565b81810360608301526149c58184613633565b905095945050505050565b600060808201905081810360008301526149ea8187613633565b905081810360208301526149fe8186613633565b9050614a0d60408301856137d6565b614a1a60608301846137d6565b95945050505050565b60006060820190508181036000830152614a3d8186613633565b90508181036020830152614a518185613633565b90508181036040830152614a658184613633565b9050949350505050565b6000819050919050565b614a8a614a8582613481565b614a6f565b82525050565b60008160601b9050919050565b6000614aa882614a90565b9050919050565b6000614aba82614a9d565b9050919050565b614ad2614acd826136ae565b614aaf565b82525050565b6000614ae48286614a79565b602082019150614af48285614ac1565b601482019150614b048284614a79565b602082019150819050949350505050565b7f4e487b7100000000000000000000000000000000000000000000000000000000600052601260045260246000fd5b6000614b4f82613481565b9150614b5a83613481565b925082614b6a57614b69614b15565b5b828206905092915050565b60006040820190508181036000830152614b8f8185613633565b9050614b9e60208301846137d6565b9392505050565b60006040820190508181036000830152614bbf8185613633565b90508181036020830152614bd38184613633565b90509392505050565b7f4552433732313a207472616e736665722066726f6d20696e636f72726563742060008201527f6f776e6572000000000000000000000000000000000000000000000000000000602082015250565b6000614c38602583613622565b9150614c4382614bdc565b604082019050919050565b60006020820190508181036000830152614c6781614c2b565b9050919050565b7f4552433732313a207472616e7366657220746f20746865207a65726f2061646460008201527f7265737300000000000000000000000000000000000000000000000000000000602082015250565b6000614cca602483613622565b9150614cd582614c6e565b604082019050919050565b60006020820190508181036000830152614cf981614cbd565b9050919050565b6000614d0b82613481565b9150614d1683613481565b9250828201905080821115614d2e57614d2d613f12565b5b92915050565b7f4552433732313a20617070726f766520746f2063616c6c657200000000000000600082015250565b6000614d6a601983613622565b9150614d7582614d34565b602082019050919050565b60006020820190508181036000830152614d9981614d5d565b9050919050565b7f4552433732313a207472616e7366657220746f206e6f6e20455243373231526560008201527f63656976657220696d706c656d656e7465720000000000000000000000000000602082015250565b6000614dfc603283613622565b9150614e0782614da0565b604082019050919050565b60006020820190508181036000830152614e2b81614def565b9050919050565b6000614e3d82613481565b9150614e4883613481565b925082614e5857614e57614b15565b5b828204905092915050565b6000614e6e82613481565b9150614e7983613481565b9250828202614e8781613481565b91508282048414831517614e9e57614e9d613f12565b5b5092915050565b60006060820190508181036000830152614ebf8186613633565b9050614ece60208301856137d6565b614edb60408301846137d6565b949350505050565b600081519050919050565b600082825260208201905092915050565b6000614f0a82614ee3565b614f148185614eee565b9350614f24818560208601613500565b614f2d8161352a565b840191505092915050565b6000608082019050614f4d60008301876136c0565b614f5a60208301866136c0565b614f6760408301856137d6565b8181036060830152614f798184614eff565b905095945050505050565b600081519050614f93816133f2565b92915050565b600060208284031215614faf57614fae6133bc565b5b6000614fbd84828501614f84565b91505092915050565b7f4552433732313a206d696e7420746f20746865207a65726f2061646472657373600082015250565b6000614ffc602083613622565b915061500782614fc6565b602082019050919050565b6000602082019050818103600083015261502b81614fef565b9050919050565b7f4552433732313a20746f6b656e20616c7265616479206d696e74656400000000600082015250565b6000615068601c83613622565b915061507382615032565b602082019050919050565b600060208201905081810360008301526150978161505b565b905091905056fe506c617965722061747461636b656420426f73732e204e657720626f73732068703a2025734142434445464748494a4b4c4d4e4f505152535455565758595a6162636465666768696a6b6c6d6e6f707172737475767778797a303132333435363738392b2f4d696e746564204e465420772f20746f6b656e496420257320616e6420636861726163746572496e646578202573426f73732061747461636b656420706c617965722e204e657720706c617965722068703a2025730a506c6179657220772f206368617261637465722025732061626f757420746f2061747461636b2e2048617320257320485020616e64202573204144a26469706673582212201800d28d428fd5a30ba1454760beda3e3f64ca495c963149b8530804d66abcf764736f6c63430008110033446f6e6520696e697469616c697a696e6720257320772f2048502025732c20696d67202573446f6e6520696e697469616c697a696e6720626f737320257320772f2048502025732c20696d67202573",
  "linkReferences": {},
  "deployedLinkReferences": {}
}